:0404000002048D3233
:01040B0032BE
:0104130032B6
:03041B0002282E86
:0104230032A6
:03042B0002062C9A
:010433003296
:01043B00328E
:010443003286
:01044B00327E
:010453003276
:01045B00326E
:03046300024587C8
:01046B00325E
:030473000227F06D
:01047B00324E
:0304830002296AE1
:0A04E60090F247E4F0A3F0D200D238
:0404F00001C202D271
:0404F40003D204D259
:0404F80005D20678AB
:0A04FC00007414F278017401F27824
:0A0506000274CEF2780374D5F27887
:0A0510000474E6F2780574E5F27851
:09051A0006E4F278077464F2783B
:0A0523000874C7F2780974D1F27869
:0C052D000A74BCF2087434F208E4F2080E
:0C053900F2780E74F4F2087401F208E489
:0C054500F208F2781274F4F2087401F26B
:0C05510008E4F208F2781674F4F2087462
:0C055D0001F208E4F208F2781AE4F20857
:0C056900F208F208F2781E74BCF208746C
:0C05750002F208E4F208F2782274BCF2F2
:0C058100087402F208E4F208F278267414
:0C058D00BCF2087402F208E4F208F278F4
:0A0599002AE4F208F208F208F278F2
:0A05A3002EE4F208F208F208F278E4
:0A05AD0032E4F208F208F208F278D6
:0A05B70036E4F208F208F208F278C8
:0805C1003AE4F2783EE4F2781E
:0405C9003F7450F239
:0306250002048646
:0504860012252480FE98
:0406280043A11022B8
:0A062C0053C07F53A1FE53BEFC3201
:07063600AFBE5307FB8FBEAE
:0E063D00E5BE30E5FBAFC674F85F4441FF8FA9
:01064B00C6E8
:09064C00E5C630E6FB43BE0422C2
:0E065500AFFB5307BF8FFB43F84090006412C9
:0306630045D82255
:0E0666009000641245D8AFFB5307BF8FFBAF67
:07067400F85307BF8FF822C5
:0C067B003001371245ACAC82AD83AEF00C
:0C068700FF786774FAF208E4F208F20849
:0E069300F28C828D838EF0EF122C0BAC82ADB8
:0D06A10083AEF0FFEC30E00543FF0480075E
:0706AE00AFFF5307FB8FFFB4
:0106B5002222
:0C06B6003001391245ACAC82AD83AEF0CF
:0C06C200FF786774F4F2087401F208E499
:0E06CE00F208F28C828D838EF0EF122C0BACB2
:0E06DC0082AD83AEF0FFEC30E00543FF0280FC
:0106EA000708
:0706EB00AFFF5307FD8FFF75
:0106F20022E5
:0E06F300AE82AF8374142EF582E43FF583E0EF
:0B070100FF530780BF80047F018002CF
:02070C007F006C
:03070E008F8222B5
:0E071100AF8290F0F3E4F0EF30E00690F0F3EA
:03071F007480F0F3
:0C072200EF30E10890F0F3E0FE4440F0FE
:0C072E00EF30E20890F0F3E0FE4420F011
:0C073A00EF30E30890F0F3E0FE4410F014
:0C074600EF30E40890F0F3E0FE4408F00F
:0C075200EF30E50890F0F3E0FE4404F006
:0C075E00EF30E60890F0F3E0FE4402F0FB
:0C076A00EF30E70890F0F3E0FF4401F0EE
:0707760090F0F3E0F5822290
:0C077D00AF827840C3E2F5F0EF95F05039
:05078900048F828005D1
:05078E007840E2F58255
:010793002243
:0C079400AFF0AE83E5827842F208EEF28E
:0507A00008EFF27C00EF
:0C07A5007841C3E2F5F0EC95F0503A7892
:0C07B10042E22CFA08E23400FB08E2FFF0
:0E07BD008A828B838FF01254E8F582C007C049
:0E07CB0004C003C002120711AE82D002D00398
:0E07D900D004D0078A828B838FF0EE12306737
:0307E7000C80BBC8
:0107EA0022EC
:0D07EB00AE82AF8390F0F4EEF0A3EFF07E4D
:0607F800F47FF07D0078A3
:0B07FE00417402F28E828F838DF01296
:0E080900079490F0F4E0FEA3E0FF74E05FC4FB
:0E081700035407FC53071F7D007B008CF00587
:03082500F0800C54
:0C082800EE2EFEEF33FFED33FDEB33FB53
:0B083400D5F0F18E828F838DF0EB2257
:0E083F00AF82AE83ADF0FC90F0F8EFF0A3EEC8
:0E084D00F0A3EDF0A3ECF090F0F6E0FEA3E0D7
:0A085B00FF90F0F8E0F57BA3E0F554
:080865007CA3E0F57DA3E0F5A2
:0A086D007EA87DC4C8C4540F68C8FB
:0C087700540FC868C853001FE4F9E824BF
:0A08830004F582E934F9F583E08EF4
:0C088D00828F83F074012EFCE43FFDA874
:0A0899007CE57DA2E7C833C833C830
:0908A3005401F9E57E257E49E5CA
:0B08AC007E23540153001FE4F9E824F0
:0A08B70004F582E934F9F583E08CC2
:0C08C100828D83F074022EFCE43FFDA841
:0A08CD007CE57DC313C813C8C313F4
:0C08D700C813C8F9E57E030354C049E5CE
:0C08E3007E0303543F53001FE4F9E82497
:0A08EF0004F582E934F9F583E08C8A
:0C08F900828D83F074032EFCE43FFDA808
:0A0905007BE57CC403C8C40354075B
:0C090F0068C85407C868C8F9E57DC40337
:0A091B0054F849AA7DE57EC403CA22
:0E092500C40354076ACA5407CA6ACA53001FA3
:0A093300E4F9E82404F582E934F940
:0E093D00F583E08C828D83F074042EFCE43F81
:0A094B00FDA87B53001FE4F9E82427
:0A09550004F582E934F9F583E08C23
:0E095F00828D83F08E828F83A3A3A3A3A3E4D3
:02096D00F02276
:05096F00100B028003E3
:0309740043FF023C
:050977001009028003DD
:03097C0043FF0234
:05097F00100A02800FC8
:0D09840043FF021206669000FA1245D812D9
:02099100065509
:08099300AFFF5307FD8FFF22A7
:09099B001239AB123A6250061247
:0509A40031D61248F6F7
:0109A900222B
:0D09AA0012261F902580E4F5F0122653223E
:0909B700E58290F0FCF0FF7E00E7
:0309C000BE200056
:0A09C3005014EE2404F582E434F928
:0909CD00F583E0FDB5070280038B
:0309D6000E80E7A9
:0E09D9007F007D007C008E828F838DF0EC22EB
:0809E7001245AC8582268583D0
:0509EF002785F028F54A
:0609F4002990F8EFE07805
:0C09FA00A4F208E4F29003E8123A79AA93
:0C0A060082E583FB3395E0FEFFEA252625
:0A0A1200FAEB3527FBEE3528FEEF66
:0C0A1C003529FF90F14DEAF0A3EBF0A3A8
:0E0A2800EEF0A3EFF01245ACAC82AD83AEF061
:0E0A3600FF90F151ECF0A3EDF0A3EEF0A3EF72
:0A0A4400F090F14DE0F526A3E0F577
:080A4E0027A3E0F528A3E0F561
:010A56002976
:0E0A57001227D2E582704590F151E0FAA3E03B
:0C0A6500FBA3E0FEA3E0FFC3EA9526EB34
:090A71009527EE9528EF648085BD
:0C0A7A0029F063F08095F050201245AC8C
:0E0A8600AC82AD83AEF0FF90F151ECF0A3ED29
:0E0A9400F0A3EEF0A3EFF090000A1245D88018
:010AA200B49F
:020AA3007F00D2
:0E0AA500C0071227D2E582D0076061C3EF645C
:0B0AB3008094D05059EF24FDFDE43486
:0C0ABE00F0FEC007C006C0051227DAAC2D
:0E0ACA0082D005D0068D828E83ECF0123A6247
:040AD800D0075028CB
:0E0ADC00C00712327BE582D0077009C00712F6
:060AEA00099BD00780EC1F
:0A0AF000EF24FDF582E434F0F583F5
:0A0AFA00E0F582C00712330DD007AB
:0D0B040090000AC0071245D8D0070F80945A
:0A0B1100EF24FDF582E434F0F583D3
:060B1B00E4F090F0FD2261
:0E0B2100AF83E58290F155F0A3EFF090F1570D
:0B0B2F00E4F090F158F090F159F090C4
:090B3A00F15AF090F15BE4F09037
:080B4300F15CF090F15DF0900F
:090B4B00F15EF090F15FE4F0901E
:080B5400F160F090F161F090F6
:090B5C00F162F090F163E4F09005
:080B6500F164F090F165F090DD
:090B6D00F166F090F167E4F090EC
:080B7600F168F090F169F090C4
:090B7E00F16AF090F16BE4F090D3
:080B8700F16CF090F16DF090AB
:090B8F00F16EF090F16FE4F090BA
:080B9800F170F090F171F09092
:090BA000F172F090F173E4F090A1
:080BA900F174F090F175F09079
:090BB100F176F090F177E4F09088
:080BBA00F178F090F179F09060
:090BC200F17AF090F17BE4F0906F
:080BCB00F17CF090F17DF09047
:090BD300F17EF090F17FE4F09056
:080BDC00F180F090F181F0902E
:090BE400F182F090F183E4F0903D
:080BED00F184F090F185F09015
:090BF500F186F090F187E4F09024
:080BFE00F188F090F189F090FC
:090C0600F18AF090F18BE4F0900A
:080C0F00F18CF090F18DF090E2
:090C1700F18EF090F18FE4F090F1
:080C2000F190F090F191F090C9
:090C2800F192F090F193E4F090D8
:080C3100F194F090F195F090B0
:090C3900F196F090F197E4F090BF
:080C4200F198F090F199F09097
:090C4A00F19AF090F19BE4F090A6
:080C5300F19CF090F19DF0907E
:090C5B00F19EF090F19FE4F0908D
:080C6400F1A0F090F1A1F09065
:090C6C00F1A2F090F1A3E4F09074
:080C7500F1A4F090F1A5F0904C
:070C7D00F1A6F012065590EC
:0E0C8400F155E0FEA3E0FF7D00C006C007C0F2
:0E0C9200051249B315811581158190F8F0E027
:0D0CA000FCA3E0FDA3E0A3E08C828D831295
:0A0CAD0045D81209E7AE82AF837844
:0C0CB7005EEEF208EFF208E4F290F15754
:070CC30075F000122BA922BD
:0A0CCA0090F1A7E4F090F1A8F0907B
:080CD400F1A9F090F1AAF090E3
:090CDC00F1ABE4F090F1ACF090F2
:080CE500F1ADF090F1AEF090CA
:090CED00F1AFE4F090F1B0F090D9
:080CF600F1B1F090F1B2F090B1
:090CFE00F1B3E4F090F1B4F090C0
:080D0700F1B5F090F1B6F09097
:090D0F00F1B7E4F090F1B8F090A6
:080D1800F1B9F090F1BAF0907E
:090D2000F1BBE4F090F1BCF0908D
:080D2900F1BDF090F1BEF09065
:090D3100F1BFE4F090F1C0F09074
:080D3A00F1C1F090F1C2F0904C
:090D4200F1C3E4F090F1C4F0905B
:080D4B00F1C5F090F1C6F09033
:090D5300F1C7E4F090F1C8F09042
:080D5C00F1C9F090F1CAF0901A
:090D6400F1CBE4F090F1CCF09029
:080D6D00F1CDF090F1CEF0127F
:050D75000655785E74D4
:0A0D7A00A0F2087455F2087480F22C
:0A0D840090F1A775F000122BA99062
:060D8E00F1A7120B217811
:060D94005E74ACF208746D
:0C0D9A0055F2087480F290F1A775F0008B
:070DA600122BA990F1A71226
:050DAD000B21785E74CB
:0A0DB200B5F2087455F2087480F2DF
:0A0DBC0090F1A775F000122BA9902A
:060DC600F1A7120B2178D9
:060DCC005E74CAF2087417
:0C0DD20055F2087480F290F1A775F00053
:070DDE00122BA990F1A712EE
:050DE5000B21785E7493
:0A0DEA00D1F2087455F2087480F28B
:0A0DF40090F1A775F000122BA990F2
:060DFE00F1A7120B2178A1
:060E04005E74CAF20874DE
:0C0E0A0055F2087480F290F1A775F0001A
:070E1600122BA990F1A712B5
:050E1D000B21785E745A
:0A0E2200E7F2087455F2087480F23C
:0A0E2C0090F1A775F000122BA990B9
:060E3600F1A7120B217868
:060E3C005E74CAF20874A6
:0C0E420055F2087480F290F1A775F000E2
:070E4E00122BA990F1A7127D
:030E55000B21224C
:060E5800120655785E74DD
:0A0E5E00FAF2087455F2087480F2ED
:0A0E680090F1CF75F000122BA99055
:060E7200F1CF120B217804
:060E78005E74FFF2087435
:0C0E7E0055F2087480F290F1CF75F0007E
:070E8A00122BA990F1CF1219
:090E91000B21900FA01245D87846
:060E9A005E74FAF2087418
:0C0EA00055F2087480F290F1CF75F0005C
:070EAC00122BA990F1CF12F7
:040EB3000B21D3221A
:070EB700785E740DF208746F
:0C0EBE0056F2087480F290F1F775F00015
:070ECA00122BA990F1F712B1
:050ED1000B21785E74A6
:0A0ED6001BF2087456F2087480F253
:0A0EE00090F1F775F000122BA990B5
:060EEA00F1F7120B217864
:060EF0005E7428F2087494
:0C0EF60056F2087480F290F1F775F000DD
:070F0200122BA990F1F71278
:050F09000B21785E746D
:0A0F0E00A0F2087455F2087480F296
:0A0F180090F1F775F000122BA9907C
:060F2200F1F7120B212281
:070F2800785E7435F20874D5
:0C0F2F0056F2087480F290F21F75F0007A
:060F3B00122BA97884745A
:0A0F410090F2087455F2087480F273
:0A0F4B0090F21F75F000122FED78F0
:060F550084743EF20874F2
:0C0F5B0056F2087480F290F21F75F0004E
:070F6700122FED90F21F12A2
:050F6E000B21785E7408
:0A0F730041F2087456F2087480F28F
:0A0F7D0090F21F75F000122BA990EE
:060F8700F21F120B21789D
:060F8D005E744DF20874D1
:0C0F930056F2087480F290F21F75F00016
:070F9F00122BA990F21F12B2
:050FA6000B21785E74D0
:0A0FAB0058F2087456F2087480F240
:0A0FB50090F21F75F000122BA990B6
:060FBF00F21F120B217865
:060FC5005E7463F2087483
:0C0FCB0056F2087480F290F21F75F000DE
:060FD700122BA9788474BE
:0A0FDD00BFF20874F8F208E4F29085
:090FE700F21F75F000122FED78E5
:060FF00084743EF2087457
:0C0FF60056F2087480F290F21F75F000B3
:07100200122FED90F21F1206
:071009000B217474C0E074B8
:0C10100056C0E07480C0E01249B31581A6
:0E101C001581158190F8F0E0FCA3E0FDA3E043
:0E102A00A3E08C828D831245D890F8F0E0FC94
:0E103800A3E0FDA3E0A3E08C828D831245D8D7
:011046002287
:0A10470090F24BE4F090F24CF090B0
:08105100F24DF090F24EF09018
:09105900F24FE4F090F250F09027
:08106200F251F090F252F090FF
:09106A00F253E4F090F254F0900E
:08107300F255F090F256F090E6
:09107B00F257E4F090F258F090F5
:08108400F259F090F25AF090CD
:09108C00F25BE4F090F25CF090DC
:08109500F25DF090F25EF090B4
:09109D00F25FE4F090F260F090C3
:0810A600F261F090F262F0909B
:0910AE00F263E4F090F264F090AA
:0810B700F265F090F266F09082
:0910BF00F267E4F090F268F09091
:0810C800F269F090F26AF09069
:0910D000F26BE4F090F26CF09078
:0810D900F26DF090F26EF09050
:0910E100F26FE4F090F270F0905F
:0810EA00F271F090F272F09037
:0910F200F273E4F090F274F09046
:0810FB00F275F090F276F0901E
:09110300F277E4F090F278F0902C
:08110C00F279F090F27AF09004
:09111400F27BE4F090F27CF09013
:08111D00F27DF090F27EF090EB
:09112500F27FE4F090F280F090FA
:08112E00F281F090F282F090D2
:09113600F283E4F090F284F090E1
:08113F00F285F090F286F090B9
:09114700F287E4F090F288F090C8
:08115000F289F090F28AF090A0
:09115800F28BE4F090F28CF090AF
:08116100F28DF090F28EF09087
:09116900F28FE4F090F290F09096
:08117200F291F090F292F0906E
:09117A00F293E4F090F294F0907D
:08118300F295F090F296F09055
:09118B00F297E4F090F298F09064
:08119400F299F090F29AF0903C
:09119C00F29BE4F090F29CF0904B
:0811A500F29DF090F29EF09023
:0911AD00F29FE4F090F2A0F09032
:0811B600F2A1F090F2A2F0900A
:0911BE00F2A3E4F090F2A4F09019
:0811C700F2A5F090F2A6F090F1
:0911CF00F2A7E4F090F2A8F09000
:0811D800F2A9F090F2AAF090D8
:0911E000F2ABE4F090F2ACF090E7
:0811E900F2ADF090F2AEF090BF
:0911F100F2AFE4F090F2B0F090CE
:0811FA00F2B1F090F2B2F090A6
:09120200F2B3E4F090F2B4F090B4
:08120B00F2B5F090F2B6F0908C
:09121300F2B7E4F090F2B8F0909B
:08121C00F2B9F090F2BAF09073
:09122400F2BBE4F090F2BCF09082
:08122D00F2BDF090F2BEF0905A
:09123500F2BFE4F090F2C0F09069
:08123E00F2C1F090F2C2F07859
:061246005E7481F20874E1
:0C124C0056F2087480F290F29B75F000DE
:07125800122BA990F29B127A
:08125F000B2190F24BE4F012A8
:06126700096F1239AB789B
:06126D005E7488F20874B3
:0C12730056F2087480F290F29B75F000B7
:07127F00122BA912065574A1
:0A1286009BC0E074F2C0E0E4C0E099
:0D1290001249B3158115811581900064127B
:0A129D0045D81227D2AF82C0071215
:0C12A70009E7AD82AE83785EEDF208EE40
:0E12B300F208E4F290F24B75F000122BA91233
:0E12C1003A62D0075062C00712327BAE82D074
:0A12CF0007EE24D75054785E7491A6
:0C12D900F2087456F2087480F290F29B48
:0B12E50075F000C007122BA97884747C
:0A12F0004BF20874F2F208E4F290E9
:0912FA00F29B75F000122FED7D4E
:041303009B7EF2904B
:0E130700F29B75F000C006C0051250F2AB82DA
:0C131500D005D0067894EBF28D828E8318
:081321001232B212099BD00741
:0E13290090F24B75F000C0071250F2AD82AE8C
:0E13370083D00790F247EDF0A3EEF090F24B5A
:06134500E070030213F347
:0B134B008D04EC24F3244BF582E43405
:0C135600F2F583E0FBBB2C55EC24F124E5
:0A1362004BF582E434F2F583E0FB62
:0C136C003395E0FA78A4EB24D0F2EA34C8
:0D137800FF08F290000AC004123A79858245
:0A1385002A85832BD004EC24F22407
:0A138F004BF582E434F2F583E0FB35
:0D1399003395E0FAEB24D0FBEA34FFFA9024
:0813A600F249EB252AF0EA35BB
:0513AE002BA3F0806D8F
:0A13B300EC24F2244BF582E434F23E
:0C13BD00F583E0FBBB2C24EC24F1244B56
:0C13C900F582E434F2F583E0FC3395E09B
:0E13D500FBEC24D0FCEB34FFFB90F249ECF073
:0513E300A3EBF08038CF
:0B13E80090F2497464F0A3E4F0802D43
:0B13F30078A4EFF2EF3395E008F290D1
:0E13FE0003E8C006C005123A79AC82AF83D076
:0E140C0005D00674642DFDE43EFE90F249ED1D
:06141A002CF0EE3FA3F0F0
:0E14200090F249E0FEA3E0FFC3EE940FEF64EC
:08142E00809480500343FF028B
:051436008E828F83226D
:0B143B00AF83E5827845F208EFF290E5
:09144600F2C6E4F090F2C7F09048
:08144F00F2C8F090F2C9F09020
:09145700F2CAE4F090F2CBF0902F
:08146000F2F4F090F2F5F090B7
:09146800F2F6E4F090F2F7F090C6
:08147100F2F8F090F2F9F0909E
:09147900F2FAE4F090F2FBF090AD
:08148200F2FCF090F2FDF09085
:09148A00F2FEE4F090F2FFF09094
:08149300F300F090F301F0906A
:09149B00F302E4F090F303F09079
:0814A400F304F090F305F09051
:0914AC00F306E4F090F307F09060
:0814B500F308F090F309F09038
:0914BD00F30AE4F090F30BF09047
:0814C600F30CF090F30DF0901F
:0914CE00F30EE4F090F30FF0902E
:0814D700F310F090F311F09006
:0914DF00F312E4F090F313F09015
:0814E800F314F090F315F090ED
:0914F000F316E4F090F317F090FC
:0814F900F318F090F319F090D4
:09150100F31AE4F090F31BF090E2
:08150A00F31CF090F31DF090BA
:09151200F31EE4F090F31FF090C9
:08151B00F320F090F321F090A1
:09152300F322E4F090F323F090B0
:08152C00F324F090F325F09088
:09153400F326E4F090F327F09097
:08153D00F328F090F329F0906F
:09154500F32AE4F090F32BF0907E
:08154E00F32CF090F32DF09056
:09155600F32EE4F090F32FF09065
:08155F00F330F090F331F0903D
:09156700F332E4F090F333F0904C
:08157000F334F090F335F09024
:09157800F336E4F090F337F09033
:08158100F338F090F339F0900B
:09158900F33AE4F090F33BF0901A
:08159200F33CF090F33DF090F2
:09159A00F33EE4F090F33FF09001
:0815A300F340F090F341F090D9
:0915AB00F342E4F090F343F07800
:0615B4005E7497F208745A
:0C15BA0056F2087480F290F2CC75F0003C
:0715C600122BA990F2CC12D8
:0515CD000B21785E74A3
:0A15D200ACF2087456F2087480F2BF
:0A15DC0090F2CC75F000122BA990DC
:0615E600F2CC120B21788B
:0615EC005E74BBF20874FE
:0C15F20056F2087480F290F2CC75F00004
:0715FE00122BA990F2CC12A0
:051605000B21785E746A
:0A160A00D9F2087456F2087480F259
:0A16140090F2CC75F000122BA990A3
:06161E00F2CC120B217852
:061624005E74F9F2087487
:0C162A0056F2087480F290F2CC75F000CB
:07163600122BA990F2CC1267
:05163D000B21785E7432
:0A16420008F2087457F2087480F2F1
:0A164C0090F2CC75F000122BA97487
:0A165600CCC0E074F2C0E0E4C0E094
:0E1660001249B31581158115811209E7AC827C
:0C166E00AD83785EECF208EDF208E4F2C7
:0A167A0090F2F475F000122BA99015
:0B168400F2F475F0001250F2AC8290FE
:0B168F00F2C57401F090F2C4E4F0908A
:0C169A00F2C3F07845E22419FB08E234AA
:0216A60000FD45
:0C16A80090F2C3E0FAC39C40030218F962
:0916B40090F2C5E0F52C7401B5BB
:0A16BD002C32C003C005EA24F4F546
:0C16C70082E434F2F583E0FDBD2B0280CC
:0116D3000610
:0616D400D005D0038017D1
:0E16DA00D005D00390F2C3740C2AF090F2C534
:0916E800E52C04F090F2C4E4F0DA
:0A16F10090F2C5E0FABA020280038D
:0316FB0002178251
:0716FE0090F2C3E0F52C247B
:0A170500F4F582E434F2F583E0F518
:0A170F002D742CB52D56C003C00543
:0A17190090F2C4E024C6F582E43427
:0C172300F2F583E4F090F2C675F000C00F
:0E172F0004C0021250F2AB82AD83D002D0048F
:08173D00BB0105BD000280069E
:06174500D005D00380185E
:0C174B00D005D00390F2C3E52C04F09010
:0C175700F2C5EA04F090F2C4E4F0801F38
:0817630090F2C57409F0801733
:0B176B0090F2C4E0FA24C6F582E434DA
:07177600F2F583E52DF09070
:05177D00F2C4EA04F0D3
:0A17820090F2C5E0FABA03028003FA
:03178C000218112F
:0B178F00C003C00590F2C3E0F52D245C
:0A179A00F4F582E434F2F583E0FD7B
:0517A400BD2C028006CF
:0617A900D005D0038031E1
:0C17AF00D005D00390F2C4E0F52C24F427
:0A17BB0050237845E2252CF5820842
:0C17C500E23400F583E4F090F2C3E52D5F
:0E17D10004F090F2C5EA04F090F2C4E4F08057
:0117DF0031D8
:0C17E000C003C00590F2C4E0FA7845E2B6
:0C17EC002AFB08E23400FD90F2C3E02468
:0A17F800F4F582E434F2F583E0FF1B
:0E1802008B828D83F090F2C4EA04F0D005D002
:0118100003D4
:0A18110090F2C5E0FFBF040280035F
:03181B000218961A
:0B181E0090F2C3E0FF24F4F582E434F4
:0C182900F2F583E0FEC3648094B050062A
:0618350090F2C3EF04F085
:0B183B0090F2C3E0FF24F4F582E434D7
:0C184600F2F583E0FEC374B98EF063F08D
:0B1852008095F0500690F2C3EF04F008
:0D185D00C00490F2C4E0FF2BFAE43DFE90C1
:09186A00F2C3E024F4F582E43439
:0C187300F2F583E08A828E83F090F2C4CC
:0E187F00EF04F090F2C4E0FFC3740D9FD0049C
:09188D00500790F2C5E02401F0BF
:0D18960090F2C5E0FFBF094790F2C4E0F5F5
:0318A3002D7A009B
:0B18A600C3E52D9A5026C003C0057852
:0B18B10045E22AFB08E23400FDEA24B7
:0A18BC00C6F582E434F2F583E0FE85
:0C18C6008B828D83F00AD005D00380D403
:0C18D20090F2C3EAF07845E22AF58208A3
:0718DE00E23400F583E4F0A1
:0A18E500EF24FB500590F2C3ECF075
:0A18EF0090F2C3E02401F00216A8F5
:0A18F90090F2C5E0FFBF010280037A
:031903000219AE18
:0A1906007845E2FE08E2FF7D00785C
:061910005E741BF2087476
:0C19160057F2087480F28E828F838DF0EF
:09192200C004122BA9D0047F00BF
:0C192B00BF171E7845E22FFD08E23400D3
:0A193700FEEF24F4F582E434F2F52B
:0B19410083E0FB8D828E83F00F80DFBF
:0C194C007845E22418F58208E23400F52A
:0C19580083E4F07845E2FE08E2FF7D0029
:07196400785E741BF20874A9
:0C196B0057F2087480F28E828F838DF09A
:0C197700C004122BA9D0047845E224190A
:0C198300F58208E23400F583ECF07845B2
:0E198F00E22419FE08E23400FF8E828F83A34B
:0C199D00ECF07845E22429F58208E234E1
:0519A90000F583ECF0E5
:0119AE002216
:0B19AF00AF83E5827847F208EFF2906A
:0919BA00F344E4F090F345F090D1
:0819C300F346F090F347F090A9
:0919CB00F348E4F090F349F090B8
:0819D400F34AF090F34BF09090
:0919DC00F34CE4F090F34DF0909F
:0819E500F34EF090F34FF09077
:0919ED00F350E4F090F351F09086
:0819F600F352F090F353F0905E
:0919FE00F354E4F090F355F0906D
:081A0700F356F090F357F09044
:091A0F00F358E4F090F359F09053
:081A1800F35AF090F35BF0902B
:0B1A2000F35CE4F090F35D7442F09082
:0C1A2B00F35E744CF090F35F7441F09097
:0C1A3700F360744EF090F361744BF0907B
:091A4300F362E4F090F38DF090E1
:0C1A4C00F38E7401F090F38F7402F090A0
:0C1A5800F3907403F090F3917404F0908C
:0C1A6400F3927405F090F3937406F09078
:0C1A7000F3947407F090F3957408F09064
:0C1A7C00F3967409F090F397740AF09050
:0C1A8800F398740BF090F399740CF0903C
:0C1A9400F39A740DF090F39B740EF09028
:091AA000F39C740FF012065520AE
:051AA9000303021D848F
:081AAE0012104785822E85838A
:051AB6002F120E5890F4
:061ABB00F36312143B78F6
:061AC1005E7463F208747C
:0C1AC700F3F208E4F290F34475F0001212
:051AD3002BA9785E74F0
:0A1AD8007CF20874F3F208E4F290C7
:091AE200F38D75F000122BA978B8
:0C1AEB0047E2240BFA08E23400FB8A8278
:0C1AF7008B83E090F39BF07847E2241210
:0E1B0300F58208E23400F583E090F39CF0C018
:0C1B110003C002120F287847E22405F5FB
:0E1B1D008208E23400F583E0FCA3E0FDA3E0C3
:0C1B2B00FEA3E0FF90F0F6745DF0A374E0
:0C1B3700F3F08C828D838EF0EF12083FDB
:0C1B4300D002D0037847E22413F582089A
:0E1B4F00E23400F583E0FFC2D575F002EF30FE
:061B5D00E704B2D5F40418
:061B63008430D502F404F9
:0D1B6900C0E0A2D595E0F5F0D0E024B7F57E
:081B760032E5F034FFF533788D
:0C1B7E0047E22410F58208E23400F583F1
:081B8A00E0FD8D30753100789B
:0C1B920047E2240EF58208E23400F583DF
:0E1B9E00E0FCA3E0FD8C828D83C003C0021228
:0C1BAC0007EBAC82AD83AEF0FFEC2CF533
:081BB80034ED33F535EE33F591
:061BC00036EF33F5377823
:0C1BC60047E2240CF58208E23400F583AD
:0E1BD200E0FEA3E0FF8E828F831207EBAC8251
:0E1BE000AD83AEF0FFD002D0038A828B83E08B
:0A1BEE00FA7B007444C0E074F3C0F9
:091BF800E0E4C0E0C02EC02FC0E3
:041C010032C033C0FA
:041C050030C031C0FA
:041C090034C035C0EE
:0A1C0D0036C037C004C005C006C091
:0A1C170007745DC0E074F3C0E0E460
:0B1C2100C0E0C002C0037499C0E07472
:0A1C2C0055C0E07480C0E0741FC0D2
:0A1C3600E07457C0E07480C0E07451
:0A1C40009DC0E074F3C0E0E4C0E0D2
:0D1C4A001247AAAE82E58124E1F5818E07E4
:031C5700BF40008B
:0A1C5A005010EF249DF582E434F3EE
:081C6400F5837420F00F80EB02
:081C6C0090F88D749DF0A37443
:0C1C7400F3F090F88F7440F0A3E4F0A3AC
:0B1C8000F0A3F090F89374F4F0A3744C
:061C8B00F8F090F89574DA
:071C91008DF0A374F3F09045
:061C9800F3DD1241D074DF
:0A1C9E0040C0E07457C0E07480C03D
:0C1CA800E01249B31581158115817F0001
:031CB400BF10005E
:0A1CB700502EEF248DF582E434F383
:0D1CC100F583E0FE7D00C007C006C005747D
:0A1CCE004FC0E07457C0E07480C0FE
:0E1CD800E01249B3E58124FBF581D0070F80AF
:011CE600CD30
:0A1CE7007454C0E07457C0E074802C
:0D1CF100C0E01249B31581158115817F00F7
:031CFE00BF4000E4
:0A1D0100502EEF24DDF582E434F3E8
:0D1D0B00F583E0FE7D00C007C006C0057432
:0A1D18004FC0E07457C0E07480C0B3
:0E1D2200E01249B3E58124FBF581D0070F8064
:011D3000CDE5
:0A1D31007456C0E07457C0E07480DF
:0E1D3B00C0E01249B315811581158190F8F0B2
:0E1D4900E0FCA3E0FDA3E0A3E08C828D8312FA
:071D570045D8745AC0E07486
:0C1D5E0057C0E07480C0E01249B315814A
:0E1D6A001581158190F8F0E0FCA3E0FDA3E0E8
:0C1D7800A3E08C828D831245D8120EB7B8
:041D840012066622BB
:041D88007E017F0059
:0E1D8C00C3EE9410EF6480948050198E82C2D2
:0C1D9A00F0C007C00685F02512510AD0E9
:0A1DA60006D0070EBE00DF0F80DC40
:011DB0002210
:041DB1007E007F0031
:0E1DB500C3EE9410EF6480948050198E82C2A9
:0C1DC300F0C007C00685F02512510AD0C0
:0A1DCF0006D0070EBE00DF0F80DC17
:011DD90022E7
:041DDA007E007F0008
:0D1DDE00C3EE9404EF648094805018EE244E
:091DEB0002F9EE24DCF582EF346C
:0C1DF400F8F583E0FDF30EBE00E00F8068
:011E0000DD04
:011E010022BE
:0E1E0200AFC95307FC8FC9AFC974FB5F44081A
:041E1000FF8FC92255
:0E1E1400AF83E58290F41DF0A3EFF0122F4390
:071E2200122F90121DB130D8
:051E29000503021FDDAE
:081E2E00123A625003021F503A
:0B1E3600AF8CA2BD9208AEF3ADFD78AA
:0A1E41004DE5F4F2784EE5FEF2C024
:0C1E4B0007C006C005120628123A6B9072
:0C1E5700F92BE4F0C206AABE53027F8AF9
:0E1E6300BE43A203120636D005D006D0077883
:0A1E710049E5D5F2784AE5D4F2E520
:0B1E7B00D6540124FF920743D6817A61
:061E8600E07BF88B0290E6
:071E8C00F8E7EAF07AE07BC1
:071E9300F890F8E8EAF07A8C
:061E9A00E77BF88BD57A0E
:0A1EA000E77BF88AD475D601ABA8E1
:0A1EAA00784BE5B8F2784CE59AF2A7
:0E1EB40043A8A053A8A0AAB85302C08AB8AA97
:0B1EC2009A5302C08A9A43A204AAA50A
:061ECD00EAB5A50280FA4F
:0E1ED300C00390F41DE0FBA3E0FC8CA48BA3E5
:041EE100AAA5D003DB
:061EE500EAB5A50280FA37
:0E1EEB0043C70275BE06000000E5BE5403604A
:091EF9000875D7010043870100C0
:0A1F02008BA8784BE2F5B8784CE2AA
:0A1F0C00F59A7849E2F5D5784AE22B
:081F1600F5D430070343D601A6
:0E1F1E00C007C006C0051239AFD005D006D0EE
:0C1F2C00078F8CA20892BD8EF38DFD780B
:0A1F38004DE2F5F4784EE2F5FE905C
:0E1F4200DE017401F090DE0B7407F0021FDD6B
:0C1F50001245AC784FC0E0E582F208E5D5
:0C1F5C0083F208E5F0F2D0E008F2200665
:0B1F68000B90F92B7402F0123A73D2B8
:011F73000667
:0E1F74009000641245D890F41DE0FAA3E0FB43
:0B1F820078A4EAF208EBF29003E812EA
:071F8D003A79858238858353
:011F94003913
:0C1F95001245ACAC82AD83AEF0FF784F7B
:0C1FA100D3E29CF4B3F53AB308E29DF4DF
:0A1FAD00B3F53BB308E29EF4B3F570
:091FB7003CB308E29FF4F53DAAD9
:0A1FC00038E539FB3395E0FEFFC35E
:071FCA00E53A9AE53B9BE5B7
:081FD1003C9EE53D9F50051206
:041FD900099B80B828
:041FDD00121D882227
:061FE100E58290F41FF000
:0E1FE70012277EE582700843FF021239AB809C
:011FF500F1FA
:0D1FF60090F41FE0FFF582C0071227B9121A
:062003003A62D007501CF8
:0E200900C00712327BE582D0077009C00712B3
:0620170039ABD00780EC9C
:08201D008F8212330D1239AB62
:08202500AFFF5307FD8FFF22FE
:0D202D00AD82AE83AFF0C007C006C0051243
:0D203A003A62D005D006D00740030220F125
:0D2047008D828E838FF0C007C006C0051289
:0E20540050F2AB82D005D006D007EB04FCEBB7
:0E2062002DF8E43EF98F02888289838AF0749B
:0E2070002F1230670B0BEC2DF9E43EFA8F04B3
:0D207E0089828A838CF0742F1230677C00F9
:05208B00C3EC9B506155
:0E209000C007C006C005C004C00312327BE5C5
:0E209E0082D003D004D005D006D0077019C040
:0E20AC0007C006C005C004C00312099BD00384
:0A20BA00D004D005D006D00780CC7A
:0E20C400EC2DF8E43EF98F02888289838AF0C1
:0E20D2001254E8F582C007C006C005C004C065
:0E20E0000312330DD003D004D005D006D00774
:0320EE000C809AC9
:0120F10022CC
:0620F200E58290F421F0EC
:0E20F80075E10490DF3BE0FFBF01F590F4209E
:0E210600E090DF08F090F421E090DF06F07525
:03211400E10222C3
:0E211700AE82AF83C007C006122AE890DF1325
:0C212500E4F0122AAAD006D007EE24062F
:0C213100F9E3FDEE2402F9E390F420F045
:06213D008D821220F22247
:0E214300AF83E58290F423F0A3EFF01245ACD9
:0821510085824585834685F077
:0421590047F548906E
:0C215D00F4257442F090F426744CF090CD
:0C216900F4277441F090F428744EF090BC
:0B217500F429744BF090F42AE4F09081
:09218000F422E0FB2406F9E3F56A
:072189003EEB2402F9E39094
:09219000F420F0853E82C0031228
:0921990020F2D00390F423E0F5DC
:0721A2003FA3E0F540E4F566
:0421A90041F542F5C5
:0321AD0043F544B3
:0921B000E53F4540603DC003120B
:0C21B90045ACAA82AB83AEF0FFEAC395F0
:0521C50045F549EB9512
:0521CA0046F54AEE9508
:0521CF0047F54BEF9500
:0421D40048F54CACD2
:0921D8003FAD407E007F00C3E52D
:0621E100499CE54A9DE562
:0A21E7004B9EE54C9FD0034003021D
:0221F10023A722
:0B21F300C00312099B12067BD00305FD
:0621FE0041E4B5410C05AF
:0522040042B542070590
:0522090043B54302058E
:01220E00448B
:0C220F0078587440F208749CF208E4F265
:09221B0008F285418285428385A9
:0722240043F0E544C0031282
:0E222B0028A6AC82AD83AEF0FFD003EC4D4E82
:0D2239004F700E8B06FF8E828F83C0031244
:042246002117D00389
:0E224A00C0031245ACAC82AD83AEF0FFD003F2
:0A225800ECC39545FCED9546FDEE44
:0A2262009547FEEF9548FFC3744056
:0E226C009C747E9D74059EE49F500DC003126D
:0A227A001E029007D01245D8D003D1
:0E228400C003122D2DAE82AF83D0038E048FC7
:0822920005EE4F70030221B0BC
:0C229A008C828D83E0FFEB2402F9E3FE50
:0C22A60090DF38E02EF3C0037853E2FA1A
:0A22B20008E2FB7E008C498D4A759E
:0A22BC004B0074022FF58278407485
:0E22C60015F2C006C003C00212077DAF82D021
:0C22D40002D003D0067877EFF208E4F2A5
:0722E0007874E549F208E5FE
:0A22E7004AF208E54BF28A828B836D
:0E22F1008EF0C003122E7C1248C4D003D0031E
:0522FF004003022398DA
:0C230400C0037853E2FE08E2FF8E828FD7
:0E23100083A3A3A3A3A3E0FAA3E0FBA3E0FC36
:0B231E00A3E0FD90F0F67425F0A3741E
:0C232900F4F08A828B838CF0EDC007C0BA
:0923350006C00312083F78B274DF
:0A233E00B9F20874F8F208E4F29016
:0E234800F42575F00012439DE5828583F0D0E8
:0C23560003D006D007D00345F060032040
:02236200002A4F
:0E236400740B2EFEE43FFF8E828F83E0C39B3E
:0E2372008E828F83F0C003122D48D003AFFF80
:0C2380005307FB8FFF783AEBF29000014E
:02238C008023AC
:0A238E00C003122D48D0030221B055
:0E239800122D48AFFF5307FB8FFF900000800F
:0123A6000A2C
:0A23A700AFFF5307FB8FFF9000000B
:0123B1002209
:0C23B200AF83E58290F42BF0A3EFF03035
:0C23BE00052990F42BE0FEA3E0CE25E002
:0C23CA00CE33CE25E0CE33EE241AF9E32A
:0E23D600FC09E3FD09E3FE09E3FF8C828D8321
:0523E4008EF0022474DC
:0C23E90090F42BE0FEA3E0FF4E70607843
:0C23F5003EE2605B8E04EFCC25E0CC33B0
:0B240100CC25E0CC33EC240AF9E3F515
:08240C004D09E3F54E09E3F56B
:062414004F09E3F55078CA
:0A241A003E7900E2F5F0E3A4FCAD0A
:0C242400F078A4ECF208EDF29007D01262
:0E2430003A79AC82E583FD3395E0FBFAEC25AA
:08243E004DFCED354EFDEB35C0
:0A2446004FFBEA3550FA8C828D83BB
:042450008BF080206D
:0D245400EFCE25E0CE33CE25E0CE33EE24D2
:0C2461000AF9E3FC09E3FD09E3FE09E3CE
:07246D00FF8C828D838EF0CD
:012474002245
:0B247500AF83E5827855F208EFF2908B
:08248000F8DBE0FC3395E0FD00
:0E248800C3EC9404ED64809480504F8C828DE0
:0E24960083C005C0041223B2AA82AB83D00417
:0824A40090F422ECF078557968
:0C24AC0053E2F308E209F38A828B83C03C
:0E24B80004122143AE82AF83D004D005BE00D3
:0624C60005BF0002800FBB
:0A24CC00BE010CBF0009C205783EF6
:0524D600E4F2D38028B0
:0724DB000CBC00A90D80A656
:0924E200783EE22401F2783E7913
:0B24EB0001C3E2F5F0E395F050067825
:0524F6003EE4F2D205F6
:0824FB00121DDA783AE4F2C385
:0125030022B5
:04250400758F0022AD
:08250800120655745CC0E0747A
:0C25100057C0E07480C0E01249B3158190
:08251C001581158112066622EB
:0A25240012399E1209AA43FE0812A4
:06252E000628121D8812B0
:0925340025049003E81245D820AB
:07253D0003051225088003CD
:03254400120E581C
:0A2547009003E81245D8122CACD224
:062551001290DF13E4F01C
:0A255700787CE4F2787D7415F20838
:0C256100E4F290F42D75F000122EEF1241
:06256D0039AB90F42D12C1
:06257300247590F42D1206
:0C25790019AF75E1049000641245D812FF
:082585002AB0123A62500678F8
:05258D003EE22401F212
:0A259200783EE26073783EE2F5F057
:0A259C00E2A4F58285F0837800794F
:0C25A600A4E2F309E4F3123A79AE82AF2C
:0C25B20083783EE27D0024FFF582ED34CA
:0A25BE00FFF583783EE2FC7D007813
:0C25C800A4EC24FFF2ED34FF08F2C00781
:0C25D400C006123A79AC82AD8378007921
:0B25E000A4E2F309E4F38C828D831267
:0E25EB003A79AC82AD83D006D00774C3C39E8C
:0D25F900FEE49FFFEC2EF582ED3FF583120E
:042606001E14800618
:06260A009000D2121E1424
:0C261000122AB990DF13E4F0122AAA028B
:03261C002557221D
:09559000696E7465726E657400A9
:07559900596F7572494400CF
:0C55A00041542B4346554E3D300D0A008F
:0955AC004154453026570D0A0058
:0E55B50041542B534C4544533D312C35302C82
:0755C300373530300D0A00FE
:0755CA00415426570D0A00B1
:0E55D10041542B534C4544533D322C35303061
:0855DF002C323530300D0A00BA
:0E55E70041542B534C4544533D332C35302C4E
:0555F50035300D0A0035
:0555FA0041540D0A0000
:0E55FF0041542B4346554E3D312C310D0A00D0
:0E560D0041542B434950434C4F53450D0A0066
:0D561B0041542B43474154543D300D0A00CB
:0D56280041542B434950534855540D0A007E
:0956350041542B435354543D0031
:03563E000D0A0052
:0C56410041542B43474154543F0D0A00D4
:0B564D0041542B43494943520D0A0011
:0B56580041542B43494653520D0A00F9
:0E56630041542B43495053544152543D7463FB
:03567100702C009A
:0D56740041542B43495053454E440D0A004C
:07568100415445300D0A0001
:0956880041542B4342430D0A007A
:065691004342433E2000ED
:0E56970041542B43444E534346473D382E3872
:0756A5002E382E380D0A001B
:0E56AC0041542B53415042523D302C310D0AD7
:0156BA0000EF
:0E56BB0041542B53415042523D332C312C228E
:0E56C900436F6E74797065222C475052530D5A
:0256D7000A00C7
:0E56D90041542B53415042523D332C312C2270
:0E56E70041504E222C22696E7465726E6574FD
:0456F500220D0A0078
:0E56F90041542B53415042523D312C310D0A89
:0157070000A1
:0E57080041542B43495047534D4C4F433D31C4
:055716002C310D0A001A
:04571B0039393900DF
:0E571F002573202568687520257320256C757C
:0E572D0020256C7520256420256420256868E1
:05573B0075202573003C
:0E5740007844726970326728414553293A2037
:01574E00005A
:05574F00253032780056
:02575400200033
:045756000D0A1A001E
:02575A001A0033
:0D575C0041542B4E414D4578447269700058
:06576900364635595000E0
:0E576F005245504C4143454D452E4475636BE9
:0E577D00444E532E6F72672C31373631310097
:065A2D0036463559500019
:0E5A33005245504C4143454D452E4475636B22
:0E5A4100444E532E6F72672C313736313100D0
:015A4F000056
:045A5000CED5E6E5E4
:075A54000606060606060423
:085A5B000000DFBE000720423D
:015A6300142E
:045A6400B80B00007B
:0E5A68004D796D44727C502641455372405B6F
:025A76004B21C2
:0E5A7800303132333435363738394142434409
:0E5A8600454647484A4B4C4D4E5051525354E2
:045A940055575859B1
:07261F007510007511007534
:062626001200751300C252
:04262C0009C20AC213
:0C2630000B43F54043F10275FB8243F8B8
:0E263C00C043F44043A908AFB95307F78FB964
:09264A00D2EAC28FD2ABD2AF225A
:0E265300AF82AE83ADF0FCC3EF9417EE94009F
:0E266100ED9400EC9400400D74609F74E39EB5
:07266F0074169DE49C50036A
:0326760002273DFB
:022679007B00E4
:0E267B00C374A69F74909E74079DE49C50103B
:0E2689000BECC313FCED13FDEE13FEEF13FF7D
:0226970080E2DF
:0C26990078B5EFF208EEF208EDF208EC64
:0E26A500F290000BE4F5F0C007C006C005C0BF
:0B26B30004C00312440C8582148583D0
:0526BE001585F016F582
:0C26C30017D003D004D005D006D0077853
:0C26CF00B5EFF208EEF208EDF208ECF2B4
:0E26DB009021D7E4F5F0C00312440CAC82ADA0
:0C26E90083AEF0FF7867741BF20874B732
:0E26F500F208E4F208F28C828D838EF0EF1270
:0D2703002C0BAC82AD83AEF0FFD003EC25B3
:0827100014FCED3515FDEE355A
:0627180016FEEF3517FF6D
:0B271E00ED54FE7006EE7003EF60103B
:0E2729000BEFC313FFEE13FEED13FDEC13FCDC
:0227370080E53B
:042739008BFC8CFA8F
:01273D002279
:09273E00AF827E00BF0102800F92
:05274700BF0202800E3C
:05274C00BF0302800D37
:05275100BF0410800C24
:042756007E38800A3F
:04275A007E1880065F
:04275E007E30800247
:022762007E10E7
:08276400744755FB4EF5FB2202
:0A276C00AF82BF020543FB048007A3
:07277600AFFB5307FB8FFBD3
:01277D002239
:09277E00E511C3951014F5822247
:08278700AE82AF837857E2FD3A
:0A278F00ED6026E5102442FBE4345F
:0C279900F4FC8E828F83E0FAA3AE82AFC6
:0C27A500838B828C83EAF0E51004FC8C2E
:0727B100101D439A0880D7B8
:0127B80022FE
:0A27B900AF82E5102442F582E434FB
:0A27C300F4F583EFF0E51004FF8F3A
:0527CD0010439A0822F0
:0827D200E513C39512F5822204
:0827DA00E5122442F582E4340B
:0A27E200F5F583E0FFE51204FE8E1A
:0427EC00128F8222A4
:0E27F000C0E0C082C083C007C0D075D000E535
:0627FE0010B51102801865
:0A280400C2EAE5112442F582E43433
:0A280E00F4F583E0F5F9E51104FF8D
:042818008F11800795
:07281C00AF9A5307F78F9AF2
:0B282300D0D0D007D083D082D0E032AC
:0E282E00C0E0C082C083C007C006C005C00461
:0E283C00C003C0D075D000C28FE5F8FF54185D
:04284A006002803177
:0A284E00AD127E00AB137C00EDC359
:0A2858009BFDEE9CFE1DBDFF011E5E
:0A286200ED6016E5132442F582E450
:0A286C0034F5F583E5F9F0E51304F7
:05287600FE8E1380102E
:04287B00D20B800CF0
:06287F00EF30E402D20A72
:06288500EF30E302D2096E
:0E288B00D0D0D003D004D005D006D007D08323
:05289900D082D0E03206
:08289E00E511C39510F582223B
:0C28A600AC82AD83AEF0FF7B00785CE4F8
:0128B200F233
:0A28B300785BE2235401FA705278BA
:0C28BD0058E225E0F208E233F208E233B2
:0C28C900F208E233F27858C3E2F5F0ECBC
:0E28D50095F008E2F5F0ED95F008E2F5F0EE72
:0C28E30095F008E2F5F0EF95F050147845
:0C28EF005BE2C313F218E213F218E213CC
:0728FB00F218E213F2800C59
:0A290200785CE22401F2785CE2FB4D
:02290C0080A5A4
:0C290E007858C3E2F5F0EC95F008E2F513
:0E291A00F0ED95F008E2F5F0EE95F008E2F52C
:0C292800F0EF95F0401C7858D3E29CF4CE
:0E293400B3FCB308E29DF4B3FDB308E29EF4D9
:08294200B3FEB308E29FF4FFAD
:0C294A00785BE2C313F218E213F218E20B
:0E29560013F218E213F28B021BEA70AC8C82B3
:062964008D838EF0EF22CE
:0605CD00751800C20CC20B
:0405D3000DC20EC285
:0105D7000F14
:0C296A00C025C0E0C0F0C082C083C007E0
:0E297600C006C005C004C003C002C001C000FE
:0E298400C0D0E4F5D0F59BE5E930E41874030B
:0B299200B5180875821E122A29800B60
:0B299D007402B5180675821F122A296B
:0B29A800E5E930E506758220122A29BF
:0A29B300300C427403B51802804F87
:0C29BD007402B5182390DF3BE0FFBF0D53
:0E29C9001B90DF3CE0FF20E33A90DF12E0FFBE
:0829D700530707BF0702800649
:0629DF0074F625A4502748
:0A29E50090DF3BE0FFBF0D0280030E
:0329EF0075E1048B
:0629F200758221122A2962
:0A29F800E5E930E705D20F75E97F2D
:0A2A0200E5E930E605D20E75E9BFE4
:0E2A0C00D0D0D000D001D002D003D004D0052D
:0D2A1A00D006D007D083D082D0F0D0E0D01D
:022A2700253256
:0C2A2900AF8290DF3BE0FEBE1202801E78
:0A2A350090DF3BE0FEBE01028014BA
:0E2A3F0090DF3BE0FE600D90DF3BE0FEBE1539
:032A4D0002800301
:032A500075E1002D
:0C2A530075D682AED15306FD8ED17518E9
:0D2A5F000290DF127407F08F82122D883074
:0B2A6C000D12AF9A5307FE8F9A85A44D
:032A77001A8518A5
:052A7A0019751801C2EE
:012A7F000D49
:0A2A800075E9CFAF18BF0102801AFC
:052A8A00BF02028005FF
:052A8F00BF03158008E3
:082A940043D60275E102800B3C
:082A9C0043D60275E10380033B
:032AA40075E104D5
:032AA700C20C223C
:062AAA00D20C439B032245
:052AB000D20D122AAA5C
:042AB500200CFD22D2
:0A2AB90085191890DF12E0FF700786
:072AC300F5A2851AA4F5A39A
:0A2ACA00439A01AF18BF0202800515
:052AD400BF03108008A3
:082AD90043D60275E1028006FC
:062AE10043D60275E1037B
:012AE70022CC
:0E2AE8001247FD90DF147414F090DF13740594
:0E2AF600F090DF127407F0439A017591F0D250
:082B0400AF90F89F7413F0225A
:0C2B0C00AE82AF83785DE2601290DF12B1
:0C2B1800E4F075A200785DE2F5A475A35E
:032B240000800628
:062B270090DF127407F0BC
:0E2B2D007CD97D0074DF2DFC90F899ECF07CD3
:0E2B3B00D990F89AECF08F0590F89BEDF09091
:0D2B4900F89CEEF090DF02E0FF0F0F0F9000
:0B2B5600F89EEFF090F89D7480F09066
:092B6100F8A07410F075180222AE
:0E2B6A00AE82AF838F0590F899EDF090F89A47
:0E2B7800EEF07ED97F0074DF2FFE90F89BEE0A
:0E2B8600F07ED990F89CEEF090DF02E0FF0F99
:0C2B940090F89EEFF090F89D7420F090F7
:092BA000F8A07440F0751803223E
:0C2BA900AFF0AE83E5827861F208EEF236
:0C2BB50008EFF2785EE2FA08E2FB08E2AA
:0A2BC100FC78617964E2F308E20990
:052BCB00F308E209F32C
:0E2BD0008A828B838CF01254E8FFA3AA82AB9A
:0C2BDE00837864E2F58208E2F58308E2E7
:0E2BEA00F5F0EF123067A31818E582F208E547
:0C2BF80083F2EF70D37861E2F58208E20E
:072C0400F58308E2F5F02260
:0C2C0B00AF82AE83ADF0FC786BEFF208F6
:0E2C1700EEF208EDF208ECF27A007B007E008F
:042C25007F007D208F
:0A2C2900786EE2235401FC24FF92B0
:0A2C330010786BE225E0F208E233AE
:0E2C3D00F208E233F208E233F2EA2AFAEB334D
:0C2C4B00FBEE33FEEF33FF3010034302BA
:012C5700017B
:0C2C58007867C3E2F5F0EA95F008E2F5B9
:0E2C6400F0EB95F008E2F5F0EE95F008E2F5E1
:0C2C7200F0EF95F040227867D3E29AF46E
:0E2C7E00B3FAB308E29BF4B3FBB308E29EF492
:0C2C8C00B3FEB308E29FF4FF786BE24453
:022C980001F247
:0C2C9A00DD8D786BE2F58208E2F583081E
:062CA600E2F5F008E22255
:0705D800751B00751C007586
:0605DF001D00751E00C2A4
:0405E50011C21278B5
:0905E9006FE4F208F208F208F2D6
:0C2CAC0012550490DF027413F03011097F
:092CB800786F90DF06E2F080174E
:0E2CC10090578BE493FC740193FD740293FE14
:092CCF00740393FF90DF06ECF0A2
:072CD800122AE8122AAA22C9
:0B2CDF00122E3FE582540304F5822210
:0A2CEA00E51EC3951D14540FF5827A
:012CF40022BD
:0A2CF500E51DC3951E540FF5822261
:0C2CFF00122CEAE58270059000008011A4
:0A2D0B00E51D75F014A42484FE7485
:072D1500F635F08E82F58314
:012D1C002294
:0A2D1D00740FB51D05751D0080023E
:022D2700051D88
:042D2900122AAA229E
:0A2D2D00E51CB51B059000008010A6
:0A2D3700E51B75F016A42442FEE42B
:062D410034F68E82F583DA
:012D47002269
:0A2D48007402B51B05751B00800224
:022D5200051B5F
:012D5400225C
:072D5500E51DB51E0280150B
:0A2D5C00E51E75F014A42484F5822E
:0B2D660074F635F0F583122B6A80161E
:0A2D7100E51C75F016A42442F5825B
:0A2D7B00E434F6F583785DE4F2120B
:022D85002B0C15
:012D87002229
:0B2D8800AF82BF2106122D55022E3E27
:0A2D9300BF1E33740FB51E05751E38
:032D9D00008002B1
:022DA000051E0E
:0A2DA200E51C75F016A42442FDE4C0
:0C2DAC0034F6FEC006C005122CDFAC821D
:0C2DB800D005D006785DECF28D828E8391
:052DC400122B0C8075CC
:0A2DC900BF1F6CE51C75F016A42472
:072DD30042FDE434F6FE208E
:0C2DDA00123BC006C0051248C4D005D052
:0A2DE60006402EE51DB51E02801AFE
:0E2DF000C006C005122CDFAC82D005D00678DC
:0C2DFE005DECF28D828E83122B0C800B9A
:0B2E0A00785DE4F28D828E83122B0CA9
:022E1500802714
:0C2E17008D828E83E060157402B51C04EF
:042E23007E008004A9
:042E2700E51C04FEA4
:062E2B00EEB51B0280025F
:022E31008E1CF5
:052E3300122D55800680
:062E3800BF2003122D551E
:012E3E002271
:04578B00800000009A
:0604BC00E478FFF6D8FD14
:082E3F00E5B4540C600280F8B8
:0C2E470085BC82743055B44407F5B422F9
:0A2E5300AF827873E27003EF6009AC
:092E5D007873E2B40308BF80059C
:052E6600787374AAF26C
:0B2E6B008FBC7873E2F5BC122E3F1202
:062E76002E3F122E3F2248
:0C2E7C00AD82AE83AFF07879EDF208EE85
:0C2E8800F208EFF28D048E038F027874C4
:0B2E9400E2FD08E2FE08E2FF8C7B8BF1
:042E9F007C8A7D7834
:072EA30077E2F57E08E2F57D
:012EAA007FA8
:052EAB00AB7EAC7F15B9
:072EB0007E74FFB57E0215E0
:012EB7007F9B
:0E2EB800EB4C60258D828E838FF01254E8FC67
:0A2EC600A3AD82AE83857B82857C7C
:0B2ED00083857DF0EC123067A3858243
:062EDB007B85837C80CAA8
:0C2EE1007879E2F58208E2F58308E2F55A
:022EED00F022D1
:0C2EEF00AFF0AE83E582787FF208EEF2CF
:0C2EFB0008EFF2787FE2FA08E2FB08E240
:092F0700FC787DE2F57B08E2F59F
:012F10007C44
:052F1100AE7BAF7C1552
:072F16007B74FFB57B02157F
:012F1D007C37
:0C2F1E00EE4F60138A828B838CF0787C6D
:0B2F2A00E2123067A3AA82AB8380DCB8
:0C2F3500787FE2F58208E2F58308E2F5FF
:022F4100F0227C
:08049A007974E94400601B7A4B
:0504A20001905A2D78C5
:0304A700B9759391
:0A04AA00F8E493F2A308B80002057D
:0804B40093D9F4DAF27593FF0D
:0905F200788274E4F208740CF242
:0C2F430075828F125518AE82AF8378B5EE
:0E2F4F00EEF208EFF208E4F208F2900EA6E4AB
:0E2F5D00F5F012440CAC82AD83AEF0FF74FFB1
:0D2F6B002CFC74033DFDE43EFEE43FFF78C6
:0C2F78006774FFF2087407F208E4F20826
:0C2F8400F28C828D838EF0EF122C0B2259
:0C2F9000AE82AF837882EEF208EFF222EE
:0C2F9C00AE82E583FF3395E0FDFC7882F7
:0C2FA80079B5E2F308E209F309E4F3094B
:0E2FB400F38E828F838DF0EC12440CAC82AD54
:0E2FC20083AEF0FF74FF2CFC74033DFDE43E73
:0C2FD000FEE43FFF78C574FFF2087407B0
:0E2FDC00F208E4F208F28C828D838EF0EF1280
:032FEA00460C2270
:0C2FED00AFF0AE83E5827887F208EEF2C8
:0C2FF90008EFF27887E2FA08E2FB08E239
:01300500FCCE
:0E3006008A828B838CF01254E860070ABA00AD
:04301400F10B80EE4E
:0B3018007884E2FD08E2FE08E2FF7889
:093023008AEAF208EBF208ECF273
:0E302C008D828E838FF01254E8FCA3AD82AE2D
:0C303A0083788AE2F58208E2F58308E260
:0E304600F5F0EC123067A31818E582F208E5E9
:0C30540083F2EC70D37887E2F58208E28A
:07306000F58308E2F5F02200
:0E30670020F71030F6118883A88220F507F6B6
:05307500A88375830033
:01307A002233
:03307B00F280F7E9
:02307E00F0223E
:0605FB00751F00C213C2CF
:0606010014788EE4F2788B
:090607008FE4F2789074FFF27E9A
:04061000097F3178B5
:0606140091EEF208EFF286
:0C30800078A1740AF275820112393A78C6
:0B308C00A27440F275820412396C78C7
:0B309700A17440F275820412393A78EF
:0530A2009074FFF22212
:0E30A70090F7C5E0FF53077FBF215590F7C992
:0E30B500E0FEA3E0FF4E6006BE0147BF0044F0
:0A30C30090F7C6E0FFBF2002800A6C
:0530CD00BF2102801686
:0530D200BF2232802244
:0730D700789F7424F20874D5
:0A30DE00F9F2900007123905801F77
:0730E800789D7424F20874C6
:0A30EF00F9F29000071238E4800E99
:0C30F90090F7C7E0FEA3E0788EEEF21224
:02310500392669
:0131070022A5
:0131080022A4
:0131090022A3
:0C310A007891E2F58208E2F58312048B54
:0E31160090F924E0FCA3E0FDA3E0FEA3E0FF9F
:0D312400BC4D1DBD011ABE0017BF001420D8
:053131001411D214127C
:0E31360045ACAC82AD83AEF0FF90F7C4ECF078
:013144002268
:0A31450090F92BE0FFBF1002800597
:05314F00758200801AEA
:0E31540090DE0E7404F090DE14E0FF30E0090F
:0931620090DE16E0FFF582800307
:03316B007582006A
:01316E00223E
:0E316F0090DE0E7404F090DE28E0FF90DE1675
:0C317D00E0FE700890DE14E054FEFEF04E
:05318900D2178F822225
:0A318E00AE82AF8378937997E2F3E5
:0B3198007898EEF208EFF27582041246
:0E31A300333990DE16E0FF700890DE14E05421
:0331B100FEFFF02E
:0131B40022F8
:0E31B50090DE0E7404F090DE11E0FF4401F095
:0831C3007440B51F03D3800125
:0131CB00C340
:0531CC0092159213753D
:0531D1001F00D21722CF
:0731D6001233B1301419128D
:0E31DD0045ACAC82AD83AEF090F7C4E0FFECE1
:0A31EB00C39FFC24B95003123A29D7
:0A31F50090F92BE0FFBF10028002EA
:0231FF008079D5
:0B32010090DE0E7404F0E51F700B302F
:0A320C00130B90DE11E0FF20E10338
:033216001231B5BD
:0A32190090DE0E7401F0788F7990BA
:09322300E2F5F0E3B5F002804E83
:0E322C0090DE11E0FF20E04690DE2274A1F05B
:0E323A007420F0E4F090DE22F090DE22F0909E
:0C324800DE22F090DE227402F0E4F07848
:0C3254008F90DE22E2F090DE22E4F09089
:0C326000DE11E04401F0788FE2FF53071C
:0A326C0083788FEFF2788FE2FF788D
:0432760090F2D217E9
:01327A002231
:0A327B0090F92BE0FFBF1002800560
:053285007582008027A6
:0E328A0090DE0E7404F090DE11E0FF30E112D1
:09329800EF30E0057582008010A2
:0932A1007440C3951FF5828007FB
:0732AA007480C3951FF5823B
:0132B10022FA
:0432B200AE82AF83B6
:0A32B6007894E260517440C3951F44
:0A32C000FD7894C3E29D5004789459
:0232CA00E2FD23
:0A32CC00789AEDF2789BEEF208EF1D
:0E32D600F2758204C007C006C00512336ED028
:0C32E40005D006D007ED2EFEE43FFF7879
:0932F00094E2C39DF2ED251FF5E7
:0A32F9001F7440B51FB7C007C006E0
:093303001231B5D006D00780AAF2
:01330C00229E
:0B330D00E58290DE28F0051F7440B53B
:053318001F031231B596
:01331D00228D
:06331E00788EE2F5822228
:0A332400AF82788FE2547C4F788F5F
:02332E00F22289
:08333000AF82788FE24FF22218
:0E578F001201000202000020FB1F0022000099
:04579D000102030101
:0E57A10009024300020100C0320904000001A9
:0E57AF0002020100052400200104240202056C
:0E57BD00240600010524010001070581030AEE
:0E57CB00000109040100020A000000070504A5
:0B57D9000240000007058402400000B1
:0157E40004C0
:0457E50004030904AC
:0E57E900260350006F006C006F006C0075000E
:0E57F700200043006F00720070006F0072000F
:0A5805006100740069006F006E007E
:0C580F000C0357006900780065006C0075
:02581B00E5574F
:02581D00E95749
:02581F000F5820
:02582100E6039C
:075A9800802500000000085A
:04061A00C216C2172B
:013338002272
:0E333900AF82E4CF25E0CF33FE74202FFF7467
:0A334700DE3EFE7897E2FD7898E282
:04335100FB08E2FC97
:0E335500ED60131D8F828E83E0FA8B828C83D5
:08336300F0A3AB82AC8380EA09
:03336B00D2172254
:0E336E00AF82E4CF25E0CF33FE74202FFF7432
:0A337C00DE3EFE789AE2FD789BE247
:04338600FB08E2FC62
:0E338A00ED60141D8B828C83E0FAA3AB82AC45
:09339800838F828E83EAF080E944
:0133A1002209
:0C33A200C21690DE017401F090DE0B7486
:0333AE0007F02203
:0D33B100123A624014AFBE53077F8FBE1268
:0833BE003A6B90F92BE4F0C218
:0433C600160235D6E0
:0E33CA0090F92BE0FF7013123A7343BE80009F
:0C33D80000000090F92B7402F01233A2E8
:0E33E40090DE06E0FF90DE02E0FEEF30E00239
:0233F200D216F1
:0E33F400EF30E21690F92B7404F090F92CE4FF
:0C340200F0C007C0061233A2D006D007AD
:06340E00EF30E102C216DE
:07341400EE20E0030235D6B3
:0C341B0090DE0EE4F090DE11E0FFD2170E
:0E342700EF30E40B90DE117480F090F92CE48D
:01343500F0A6
:0D343600EF30E20990DE11E4F090F92CF087
:07344300EF20E00302356CED
:0A344A0090F92CE0FEBE01028003A1
:033454000234F24D
:0E34570090DE16E0FE90F7CDE0FCA3E0FD8EC7
:0C346500027B00C3EC9AED9B50028C0629
:073471007897EEF2789579DF
:0C34780098E2F308E209F3758200C00737
:0C348400C006123339D006D0077895E25C
:0E3490002EF208E23400F290F7CDE0FCA3E04B
:0E349E00FD7B0090F7CDECC39EF0ED9BA3F0FC
:0E34AC0090F7CDE0FDA3E0FE4D600990DE112B
:0634BA007440F002356CC5
:0E34C00090F7C5E054606007C00712310AD0D3
:0134CE0007F6
:0D34CF0090DE0EE4F090F92CE0FE70099004
:0834DC00DE117468F002356C8A
:0E34E40090DE117448F090F92CE4F002356C83
:0B34F20090DE16E0FEBE086C789874B7
:0734FD00C5F20874F7F27834
:0C350400977408F2758200C0071233397A
:0E351000D00790F92CE4F090F7C5E0546070FD
:0A351E0009C0071235D7D007800757
:07352800C0071230A7D00715
:0D352F0090DE0EE4F090F92CE0FE700890A4
:07353C00DE117460F080292C
:0E354300BE012690F7CDE0FDA3E0FE4D60082E
:0835510090DE117440F08013BC
:0D35590090DE11744AF090F92CE4F0800629
:0635660090DE117440F03C
:0D356C00EF20E16690F92CE0FEBE025E90BB
:0E357900F7CDE0FDA3E0FEC3ED9420EE94003C
:0B35870050097F0A90F92CE4F080044A
:043592007F027D2017
:07359600789AEDF2789579B7
:0C359D009BE2F308E209F3758200C0070E
:0E35A900C00512336ED005D00790DE11EFF092
:0B35B7007895E22DF208E23400F2905B
:0E35C200F7CDE0FEA3E0FF7C0090F7CDEEC356
:0635D0009DF0EF9CA3F04A
:0135D60022D2
:0A35D70090F7CFE4F090F7D0F090E9
:0B35E100F7C6E0FF24F3500302388C13
:0735EC00EF2F2F9035F37360
:0735F3000237B6023878022E
:0635FA00388C0238780253
:06360000388C0236F102D5
:06360600361A02388C02A6
:06360C00374F02371202E5
:06361200377402388C023F
:02361800387DFB
:0E361A0090F7C7E0FEA3E0FFFC7D00BC0105B9
:05362800BD000280134B
:08362D00BC0205BD0002802073
:08363500BC0305BD0002803B4F
:03363D000236BC96
:073640007895748FF2087405
:0C36470057F290F7CD7412F0A3E4F002EB
:0236530036C976
:06365500EE600302388C58
:07365B00789574A1F20874D8
:0C36620057F29057A3E493FCA3E493FDFF
:0A366E0090F7CDECF0A3EDF08051D1
:0E3678008E047D009057E4E493FB7A00C3ECCF
:083686009BED9A400302388C11
:0C368E00E4CE25E0CE33FFEE241BF582D5
:0C369A00EF3458F583E493FEA3E493FFA3
:0C36A6007895EEF208EFF28E828F83E040
:0A36B200FE90F7CDF0A3E4F0800DC8
:0B36BC0012310890F92CE0FF700302AF
:0236C700388C3D
:0E36C90090F7CBE0FEA3E0FF90F7CDE0FCA36E
:0E36D700E0FDC3EE9CEF9D500890F7CDEEF0A5
:0336E500A3EFF060
:0936E80090F92C7402F002388CF8
:0E36F10090F7C7E0FEA3E0FF90DE00EEF0EEE3
:0636FF0060047F08800258
:023705007F043F
:0937070090F92BEFF012392602B3
:02371000388CF3
:0E37120090F7C7E0FEA3E0FFBE0005BF000277
:0237200080081F
:08372200BE0121BF001E801151
:0E372A0090F92BE0FF24F7501690F92B74084D
:03373800F0800E10
:0B373B0090F92B7410F0123080800316
:0337460002388CBA
:0637490012392602388C43
:0C374F0090F92BE0FFBF10047F01800206
:02375B007F00ED
:08375D0090F7CFEFF0789D74A6
:0A376500CFF20874F7F29000011291
:05376F0038E402388C73
:0837740090F92BE0FFBF1000EB
:05377C00500302388C2F
:0B37810090F7C9E0FEA3E0FF7CA17DF3
:0C378C00578C828D83A3A3A3A3E493FDBC
:0C3798007C00C3EE9DEF9C400302388CC7
:0737A400789D74CFF2087458
:0937AB00F7F29000011238E4026B
:0237B400388C4F
:0E37B60090F7C5E0541FFE7F00BE0005BF0067
:0337C4000280146C
:0837C700BE0105BF0002802EC7
:0937CF00BE0206BF0003023848E7
:0337D8000238763E
:0937DB00123A6850047F018002DB
:0237E4007F0064
:0837E60090F7CFEFF0789D741D
:0A37EE00CFF20874F7F29000021207
:0537F80038E402388CEA
:0837FD0090F92BE0FFBF100062
:0E380500500E90F7C9E0FEA3E0FF4E600302F4
:02381300388CEF
:0B38150090F7C9E0FEA3E0FF7CA17D5E
:0C382000578C828D83A3A3A3A3E493FD27
:0B382C007C00C3EE9DEF9C4002805525
:07383700789D74CFF20874C4
:0A383E00F7F29000021238E4804413
:0E38480090F7C7E0FEA3E0FFEE540F60028091
:01385600026F
:023857008033BC
:0838590090F92BE0FFBF100005
:04386100500280276A
:07386500789D74CFF2087496
:0A386C00F7F29000021238E4801613
:023876008014BC
:05387800123926800F4B
:07387D00789D74CFF208747E
:08388400F7F29000021238E493
:01388C002219
:03388D00A216225E
:0C389000AF8CA2BD9218C2BD438C10AEDC
:06389C008C5306FE8E8C29
:0E38A200758900C2C5D2BDAEBE74FC5E440185
:0E38B000FE8EBE000000E5BE54036007D290FD
:0538BE00438701C290E8
:0938C300C2BDE58930E702C2161E
:0C38CC00301609C007123A68D00750CA35
:0C38D800E5BE30E6FB8F8CA21892BD22EA
:0E38E400AE82AF8390F92C7402F090F7CDEE17
:0C38F200F0A3EFF0789DE2FE08E2FF7802
:0738FE0095EEF208EFF22243
:0E390500AE82AF8390F92C7401F090F7CDEEF6
:0C391300F0A3EFF0789FE2FE08E2FF78DE
:07391F0095EEF208EFF22221
:0E39260090F92C7401F090F7CDE4F0A3F0229C
:0639340090F92CE4F022E2
:0C393A00E58290DE0EF078A1E2FE7F0036
:0E39460074072EFEE43FFFC423CEC423541F9B
:0C3954006ECE541FCE6ECE30E40244E074
:0C39600090DE10EEF090DE127401F022F8
:0C396C00E58290DE0EF078A2E2FE7F0003
:0E39780074072EFEE43FFFC423CEC423541F69
:0C3986006ECE541FCE6ECE30E40244E042
:0C39920090DE13EEF090DE157401F022C0
:015A9F000006
:015AA0000005
:05061E0078A37480F2D6
:07399E001239C51239AF1206
:0639A50045CD1246E122AF
:0439AB00123A50225A
:0739AF00AFBE5307FB8FBE02
:0E39B600E5BE30E6FB75C68043BE0475C70053
:0139C40022E0
:0A39C50075FF0075A00675F7992242
:0C39CF001245ACAC82AD83AEF0FF78A3D3
:0E39DB00D3E29CF4FC24E65044E5FFC4540102
:0C39E900FF24FF921A400943FF10758272
:0439F50002125588DD
:0E39F900AFF75307EF8FF7AFFF5307EF8FFFC6
:0C3A0700758201125588A2A4921943F7A1
:073A130010301A0343FF10FD
:0C3A1A001245ACAC82AD83AEF0FF78A387
:023A2600ECF2C0
:013A2800227B
:0E3A2900C2AF75D69F75820A12558875FF00D0
:0E3A370075FE0075FD0075F50075F40075F361
:0B3A4500009000641245D80200062229
:0E3A5000E5FF20E20C75820A12558830A203B1
:033A5E00123A29F0
:013A61002242
:063A62001239CFA2192267
:033A6800A2A322F4
:083A6B00AFFF5307FE8FFF229D
:063A7300D2A043FF012276
:0E3A7900AA83AB828BF090F0A4E0A4F8A9F031
:0E3A87008AF0E0A429F98BF0A3E0A429F583CE
:043A950088822222DF
:0D3A9900E58290F881F090582393F5822289
:063AA600E4F554F555F5AE
:033AAC0056F55775
:0A3AAF00C3E5549404E5559400E5C6
:0A3AB900569400E557940040030204
:023AC3003BB016
:093AC500E55425E025E0F551244B
:053ACE00D1F552E434C3
:043AD300F7F553E5CB
:043AD700542554F529
:053ADB0058E55533F52C
:053AE00059E55633F525
:053AE5005AE55733F51E
:043AEA005BE558251B
:043AEE0058F558E54A
:053AF2005933F559E510
:053AF7005A33F55AE509
:053AFC005B33F55B786F
:093B0100A8E22558F58208E2351E
:083B0A0059F583E08552828524
:073B12005383F0E551042488
:053B1900D1F552E43477
:063B1E00F7F553740125C8
:083B240058FCE43559FDE435BD
:053B2C005AE4355B784E
:0C3B3100A8E22CF58208E23DF583E08557
:093B3D005282855383F0740225C5
:063B46005124D1FEE4341D
:093B4C00F7FF74022558FAE43574
:073B550059FBE4355AE43589
:0A3B5C005B78A8E22AF58208E23B3C
:0C3B6600F583E08E828F83F074032551FC
:0A3B720024D1FEE434F7FF740325AC
:083B7C0058FAE43559FBE43569
:063B84005AFCE4355B78F9
:0C3B8A00A8E22AF58208E23BF583E0FD8A
:0A3B96008E828F83F00554E4B554CD
:073BA0000C0555B5550705A2
:053BA70056B5560205B1
:013BAC0057C1
:033BAD00023AAF2A
:043BB00085545C8557
:033BB400555D85D7
:033BB700565E85D2
:023BBA00575F53
:0A3BBC00C3E55C942CE55D9400E580
:0A3BC6005E9400E55F9400400302E6
:023BD0003D8135
:043BD200855C588531
:033BD6005D5985B1
:033BD9005E5A85AC
:043BDC005F5BE4F552
:043BE00054F555F54E
:033BE40056F5573C
:0A3BE700C3E5549404E5559400E58D
:0A3BF100569400E5579400503AE5A1
:053BFB00542482FAE5EC
:053C00005534F8FBAF94
:0A3C0500581FEF2F25E0FFE554FEE5
:0A3C0F002F24D1F582E434F7F58389
:0B3C1900E0FF8A828B83F00554E4B5C5
:053C2400540C0555B52C
:053C290055070556B52A
:043C2E0056B7055729
:023C320080B35D
:093C3400E55C54036003023CD17D
:0B3C3D0090F882E0FA90F883E0FD9020
:083C4800F882F090F884E0908E
:083C5000F883F090F885E09084
:0B3C5800F884F090F885EAF08D8212ED
:0A3C63003A99AF8290F882EFF090DA
:0B3C6D00F883E0F582123A99AF8290D4
:0B3C7800F883EFF090F884E0F5821272
:0A3C83003A99AF8290F884EFF090B8
:0B3C8D00F885E0F582123A99AF8290B2
:0A3C9800F885EFF090F882E0FFE5F8
:093CA2005FC313FEE55E13FDE5AE
:0A3CAB005D13FCE55C13FBEEC31390
:0C3CB500ED13FDEC13FCEB13FB2423F5D6
:0C3CC10082EC3459F583E493FE62079016
:043CCD00F882EFF09A
:0A3CD100E55CFC25E025E0FF24D1AE
:0C3CDB00FDE434F7FE1C1C1C1CEC2C2526
:0A3CE700E0FC24D1F582E434F7F587
:0E3CF10083E0FB90F882E062038D828E83EB0D
:0A3CFF00F0EF0424D1FDE434F7FED9
:0A3D0900EC0424D1F582E434F7F550
:0E3D130083E0FB90F883E062038D828E83EBE9
:0A3D2100F074022F24D1FDE434F702
:0A3D2B00FE74022C24D1F582E4346A
:0C3D3500F7F583E0FB90F884E0FA6203ED
:0C3D41008D828E83EBF074032F24D1FEE2
:0A3D4D00E434F7FF74032C24D1F5D1
:0C3D570082E434F7F583E0FD90F885E08D
:0C3D6300FC62058E828F83EDF0055CE4AD
:063D6F00B55C0C055DB51A
:053D75005D07055EB5CD
:043D7A005E02055F81
:033D7E00023BBC49
:013D8100221F
:0C3D8200E58290F886F0C454F0FF7E004B
:033D8E00BE040070
:0C3D91005048EE2E25E0FD2FF57B7B0056
:033D9D00BB040064
:0C3DA0005036C00778A6E22DFA08E23485
:0C3DAC0000FFEB2AFAE43FFFEB257B242C
:0A3DB800D1F582E434F7F583E0F55D
:0A3DC2007C8A828F83E0FCE57C62BE
:0C3DCC00048A828F83ECF00BD00780C5C6
:033DD8000E80B3A7
:013DDB0022C5
:023DDC007F0066
:033DDE00BF04001F
:063DE100504A8F067D0030
:033DE700BD040018
:0C3DEA00503EED2D25E0FC78A6E22CFCFC
:0E3DF60008E23400FBEE2CFCE43BFB8C828BDD
:0E3E040083E0F582C007C006C005C004C003FD
:0E3E1200123A99AA82D003D004D005D006D06F
:0A3E2000078C828B83EAF00D80BD51
:033E2A000F80B155
:013E2D002272
:0C3E2E0078A6E2FE08E2FF74012EFCE41E
:0C3E3A003FFD8C828D83E0F57B74052E2B
:073E4600F57CE43FF57D85EA
:0A3E4D007C82857D83E08C828D83EA
:0E3E5700F074092EFCE43FFD8C828D83E08523
:0A3E65007C82857D83F0740D2EF53C
:063E6F007CE43FF57D85B7
:0A3E75007C82857D83E08C828D83C2
:083E7F00F0857C82857D83E55E
:0C3E87007BF074022EFCE43FFD8C828D69
:0A3E930083E0F57C740A2EF57EE44E
:073E9D003FF57F857E828561
:0A3EA4007F83E08C828D83F0857E21
:0A3EAE0082857F83E57CF074062E08
:0C3EB800FCE43FFD8C828D83E0F57E74FD
:093EC4000E2EF57CE43FF57D852E
:0A3ECD007C82857D83E08C828D836A
:083ED700F0857C82857D83E506
:0C3EDF007EF074032EFCE43FFD8C828D0D
:0A3EEB0083E0F57E740F2EF57CE4F1
:073EF5003FF57D857C82850D
:0C3EFC007D83E08C828D83F0740B2EFC23
:0C3F0800E43FFD8C828D83E0857C828587
:0C3F14007D83F074072EFEE43FFF8E82D8
:0D3F20008F83E08C828D83F08E828F83E58D
:033F2D007EF02201
:0E3F3000E58290F887F0FF25E0FEEF235401B4
:093F3E0075F01BA462068E8222BC
:0E3F4700E58290F889F090F888E0FF74015F41
:0E3F5500FE90F889E0FD8EF0A4FEEF0354010B
:0E3F6300FC8D82C007C006C005C004123F30AE
:0E3F7100AB82D004D005D006D0078CF0EBA4B4
:0E3F7F006206EF03035401FC8D82C007C006EA
:0E3F8D00C005C004123F30123F30AB82D0049A
:0E3F9B00D005D006D0078CF0EBA46206EFA292
:0E3FA900E3E433FC8D82C007C006C005C004EF
:073FB700123F30123F3012EF
:0E3FBE003F30AB82D004D005D006D0078CF087
:0E3FCC00EBA46206EFC45401FF8D82C007C053
:083FDA0006123F30123F3012C5
:0E3FE2003F30123F30AD82D006D0078FF0ED99
:063FF000A462068E82228D
:083FF600758200123D827F017B
:033FFE00BF0A00F7
:05400100400302413EF6
:0C400600C007123DDC123E2ED0077E00E9
:03401200BE0400E9
:054015004003024131EF
:0C401A00C007EE2E25E0FD78A6E22DFB8D
:0E40260008E23400FC8B828C83E0FA90F88C68
:0E403400F08B828C83A3E062028B828C83A3CC
:0E404200A3E062028B828C83A3A3A3E06AF545
:064050006090F88BF09077
:08405600F88AE4F0D0078D6147
:08405E0090F88AE0FBBB0300AF
:0A406600506AC00778A6E22561FA4F
:0C40700008E23400FFEB2AF562E43FF5A3
:0C407C0063EB04FD2AF582E43FF583E0CD
:0A408800FF856282856383E0FCEF90
:0E4092006CF582C006C005C003123F30AF823D
:0A40A000D003D005D00678A6E22573
:0C40AA0061FA08E23400FCEB2AFAE43C66
:0C40B600FCE56062078A828C83E0FB62FC
:0E40C200078A828C83EFF090F88AEDF0D00729
:0240D000808CE2
:0C40D200EE2E25E0FD78A6E22DFB08E2B2
:0E40DE003400FC74032BFBE43CFC90F88CE0F7
:0E40EC00FA8B828C83E0FBEA6BF582C007C082
:0E40FA0006C005123F30AC82D005D006D007BC
:0C41080078A6E22DFD08E23400FB7403F1
:0E4114002DFDE43BFB90F88BE062048D828B66
:0D41220083E0FA62048D828B83ECF00E02C4
:02412F0040123C
:0D4131008F82C007123D82D0070F023FFEB3
:0A413E00123DDC123E2E75820A12BB
:034148003D822293
:0C414B00AFF0AE83E58278AFF208EEF230
:0541570008EFF27C00FE
:03415C00BC100094
:0A415F00503678AFE22CF57B08E241
:094169003400F57C08E2F57D78D4
:0C417200ACE22CFD08E23400FE08E2FF85
:0C417E008D828E838FF01254E8FD857B4B
:08418A0082857C83857DF01223
:0541920030670C80C540
:014197002205
:06419800AE82AF837D0042
:03419E00BD100051
:0E41A100502CED2EFBE43FFC8B828C83E0FA69
:0C41AF0078AAE22DF58208E23400F583C6
:0E41BB00C006C007E062028B828C83EAF00D22
:0641C900D007D00680CFF4
:0141CF0022CD
:0E41D000AF83E58290F897F0A3EFF090F88FA0
:0A41DE00E0F564A3E0F565A3E0F549
:0841E80066A3E0F567740F55B2
:0C41F00064FA90F897E0FEA3E0FF8E0355
:0C41FC008F047D0090F88DE0F568A3E0D2
:05420800F56978ACE54A
:0A420D0068F208E569F208E4F28B9C
:0E421700828C838DF0C007C006C00212414B9E
:0C422500D002D006D00778A6EEF208EF19
:0D423100F290F893E0FEA3E0FF4E600E78DF
:0C423E00A8EEF208EFF2C002123AA6D07F
:01424A000271
:0C424B0090F895E0FEA3E0FF4E600778BD
:06425700AAEEF208EFF2EE
:0C425D0090F897E0FCA3E0FDE4F56AF5A2
:044269006BF56CF590
:01426D006DE3
:06426E00C3E56A9564E55A
:044274006B9565E5FC
:044278006C9566E5F6
:06427C006D95674003028E
:024282004321D6
:0A428400C002856882856983C005C9
:0E428E00C004C002124198D002D004D0058CAA
:08429C00028D038A6E8B6F7521
:0542A4007000AE68AFE0
:0A42A9006978ACEEF208EFF208E4C9
:0842B300F2856E82856F8385A0
:0C42BB0070F0C005C004C00212414BD0DE
:0C42C70002D004D0058C068D0778A6EE0E
:0E42D300F208EFF2C005C004C002123FF6D0A0
:0C42E10002D004D00578AAECF208EDF23F
:0842ED0074102568F568E43542
:0A42F50069F56974102CFCE43DFD2E
:0C42FF0090F897ECF0A3EDF07410256A25
:06430B00F56AE4356BF5D4
:054311006BE4356CF5C2
:054316006CE4356DF5BB
:06431B006DD00202426EAB
:0E43210090F897ECF0A3EDF0EA60708C068D3A
:06432F00078E6E8F6F7512
:054335007000AE68AF4E
:0A433A006978ACEEF208EFF208E437
:08434400F2856E82856F83850E
:0C434C0070F0C005C004C00212414BD04C
:0C43580002D004D005EA2CFEE43DFF8EEC
:054364006E8F6FE4F50F
:0B43690070FF7410C39AFAE49FFF7805
:0A4374007DEAF208EFF2787CE4F233
:07437E00856E82856F8385C7
:0C43850070F0C005C004122EEFD004D070
:0B4391000578A6ECF208EDF2123FF6F2
:01439C0022FE
:0E582300637C777BF26B6FC53001672BFED77D
:0E583100AB76CA82C97DFA5947F0ADD4A2AF5A
:0E583F009CA472C0B7FD9326363FF7CC34A56B
:0E584D00E5F171D8311504C723C31896059AEA
:0E585B00071280E2EB27B27509832C1A1B6E30
:0E5869005AA0523BD6B329E32F8453D100ED51
:0E58770020FCB15B6ACBBE394A4C58CFD0EF53
:0E588500AAFB434D338545F9027F503C9FA896
:0E58930051A3408F929D38F5BCB6DA2110FF6C
:0E58A100F3D2CD0C13EC5F974417C4A77E3DE5
:0E58AF00645D197360814FDC222A908846EEFA
:0E58BD00B814DE5E0BDBE0323A0A4906245CCA
:0E58CB00C2D3AC629195E479E7C8376D8DD5F4
:0E58D9004EA96C56F4EA657AAE08BA78252E10
:0E58E7001CA6B4C6E8DD741F4BBD8B8A703E54
:0E58F500B5664803F60E613557B986C11D9E93
:0E590300E1F8981169D98E949B1E87E9CE5564
:0E59110028DF8CA1890DBFE6426841992D0F59
:04591F00B054BB16AF
:0E5923008D01020408102040801B366CD8ABAA
:0E5931004D9A2F5EBC63C697356AD4B37DFADB
:0E593F00EFC5913972E4D3BD61C29F254A9431
:0E594D003366CC831D3A74E8CB8D010204084A
:0E595B00102040801B366CD8AB4D9A2F5EBCDE
:0E59690063C697356AD4B37DFAEFC5913972E3
:0E597700E4D3BD61C29F254A943366CC831DE4
:0E5985003A74E8CB8D01020408102040801B0C
:0E599300366CD8AB4D9A2F5EBC63C697356A52
:0E59A100D4B37DFAEFC5913972E4D3BD61C273
:0E59AF009F254A943366CC831D3A74E8CB8D55
:0E59BD0001020408102040801B366CD8AB4D50
:0E59CB009A2F5EBC63C697356AD4B37DFAEF9F
:0E59D900C5913972E4D3BD61C29F254A943353
:0E59E70066CC831D3A74E8CB8D0102040810D3
:0E59F5002040801B366CD8AB4D9A2F5EBC63F1
:0E5A0300C697356AD4B37DFAEFC5913972E4C7
:0E5A1100D3BD61C29F254A943366CC831D3AF3
:035A1F0074E8CB5D
:0A439D00AD82AE83AFF08D7B8E7C05
:0A43A7008F7D78B2E2FA08E2FB080D
:0243B100E2FC2C
:0543B300AD7BAE7CAF04
:0C43B8007D8D828E838FF01254E8FD8D05
:0A43C4007E757F008A058B068C07CA
:0D43CE008D828E838FF01254E8FD7F00E594
:0943DB007EC39DFDE57F9FFF8D6F
:0A43E4007E8F7FED4F701A8A828BE6
:0C43EE00838CF01254E8600F057BE4B5EE
:0443FA007B02057CC1
:0743FE000ABA00B10B80AE0A
:07440500857E82857F832282
:0C440C00AF82AE83ADF0FC78B9EFF2088F
:0C441800EEF208EDF208ECF279B9E3FFD7
:0C4424007EB574022EF9E38FF0A4FFAD0A
:0A443000F078BFEFF208EDF279B961
:0C443A00E3FF79B5E38FF0A4FFADF0784C
:0A444600BDEFF208EDF278C0E2FFCE
:0A4450007EB974032EF9E3FE79B57E
:0A445A00E38EF0A42F78C0F278C0C2
:0B446400E2FF7EB974022EF9E3FE7443
:0A446F00B6F9E38EF0A42F78C0F236
:0A44790078BFE2FE08E2FF7DB9748F
:0C448300022DF9E3FD79B5E38DF0A4AB48
:0C448F00F02EFEEB3FFF78BFEEF208EFCE
:0A449B00F278BFE2FE08E2FF74BAF7
:0C44A500F9E3FD74B6F9E38DF0A4ABF070
:0C44B1002EFEEB3FFF78BFEEF208EFF2AA
:0A44BD007FB974032FF974BAF8E216
:0C44C700FF7EB574022EF8E28FF0A4F323
:0944D30074BAF974BAF8E2FF783A
:0C44DC00B5E28FF0A4ADF0F309EDF37F22
:0A44E800B574032FF978B9E2FF7EE6
:0B44F200B574032EF8E28FF0A4F37401
:0744FD00B6F978B9E2FF7483
:0C450400B6F8E28FF0A4ADF0F309EDF37F
:0945100079B5E4F379B9E4F3781C
:07451900BDE2F57B08E2F5AD
:084520007C08E2F57D08E2F5DC
:0A4528007E78B9E2FA08E2FB08E22F
:0A453200FE08E2FFEA257BF57BEBB3
:06453C00357CF57CEE3534
:054542007DF57DEF3561
:044547007EF57E7807
:06454B00BDE57BF208E56E
:084551007CF208E57DF208E5AB
:0A4559007EF278BDE208E208E208F5
:0C456300E278B5E2FC08E2FD08E2FE0888
:0A456F00E2FFEC257BFCED357CFD3E
:0A457900EE357DFEEF357E8C828D5D
:04458300838EF02211
:0C458700C0E0C000C0D075D00078C1E2D8
:0E4593002401F208E23400F208E23400F208DB
:0B45A100E23400F2D0D0D000D0E032B5
:0C45AC00A2BCE433FFC2BC78C1E2FB08F3
:0E45B800E2FC08E2FD08E2FEEF24FF92BC8B5D
:0745C600828C838DF0EE22D0
:0B45CD0075EDBBD2BC75EBFAD2AF223B
:0445D800AE82AF837D
:0945DC008E048F051EBEFF011FB5
:0E45E500EC4D60227582FAC007C006125588A0
:0E45F3007582FA1255887582FA125588758203
:0A460100F9125588D006D00780D1C9
:01460B00228C
:0804C20078F3E84400600A79B8
:0304CA0000759327
:0604CD00F0E4F309D8FC85
:0804D30078C6E84407600C79CB
:0B04DB000890F000E4F0A3D8FCD9FA70
:0E460C00AC82AD83AEF0FF33E433FB6013C32A
:0A461A00E49CF571E49DF572E49E46
:08462400F573E49FF5748008B2
:05462C008C718D728EFF
:03463100738F7410
:05463400AC71AD72AE97
:0446390073AF74786F
:0A463D00C8E233E433FA602078C5C8
:0C464700E2D3F43400F57108E2F4340012
:0A465300F57208E2F43400F5730874
:08465D00E2F43400F574801151
:0846650078C5E2F57108E2F5E9
:08466D007208E2F57308E2F5A2
:0146750074D0
:074676007867E571F208E529
:08467D0072F208E573F208E592
:0C46850074F28C828D838EF0EFC003C0B5
:0E46910002122C0BAC82AD83AEF0FFD002D033
:0C469F000378C9ECF208EDF208EEF20816
:0C46AB00EFF2EA6B602078C9E2D3F4342F
:0E46B70000FA08E2F43400FB08E2F43400FEDE
:0C46C50008E2F434008A828B838EF0221D
:0C46D10078C9E2F58208E2F58308E2F502
:0446DD00F008E222DD
:0746E10075D29975D3F82290
:0A46E800C075858175C0820581054B
:0A46F200810581E57524FBF8A97528
:0D46FC000909E6F70809E6F70809E6F7A83E
:0C47090075080886820886830886F01276
:0A47150054E8FAA31254E8FBA312C3
:0D471F0054E8FF74012AFCE43BFD8F06A85E
:0C472C0075080886820886830886F0EC79
:0B473800123067A3ED123067A3EE12F1
:0C47430030678A828B838FF0A87508E62F
:07474F00123067857581D06F
:024756007522CA
:0C475800AFF0AE83E58278D1F208EEF2FB
:0A47640008EFF278E374D1F208E4E4
:0A476E00F2087460F278CD79E6E2FB
:0C477800F308E209F308E209F378D079B5
:07478400E9E2F39046E812A0
:0C478B004AA3AE82AF8378D1E2FB08E2C3
:0E479700FC08E2FD8B828C838DF0E41230670B
:0547A5008E828F8322CB
:0647AA00C075858175E574
:0747B0007524F878E9F2E539
:0A47B7007524FB78E3F208E4F20831
:0A47C1007440F2E57524F8F879E67B
:0E47CB00E6F30809E6F30809E6F39046E81263
:0C47D9004AA3AE82AF83E57524FBF8868E
:0E47E500030886040886058B828C838DF0E421
:0A47F3001230678E828F83D075228A
:0E47FD0090DF31740EF090DF06E4F090DF07DD
:0E480B00740AF090DF08E4F090DF097465F0A5
:0D48190090DF0A740AF090DF0B74AAF09093
:0E482600DF0C744BF090DF0D7411F090DF0E7C
:0E4834007473F090DF0F7403F090DF10745572
:0D484200F090DF11E4F090DF147414F0909A
:0E484F00DF15740AF090DF1C74A9F090DF1DD5
:0E485D00740AF090DF1E7420F090DF1F740DBF
:0E486B00F090DF237481F090DF247435F0901C
:0E487900DF25740BF090DF2EE4F090DF00746A
:0E488700D3F090DF017491F090DF05E4F09023
:0E489500DF1A74B6F090DF1B7410F090DF167F
:0E48A300746CF090DF177444F090DF18E4F0AE
:0D48B10090DF1974B2F090DF037404F090F2
:0648BE00DF047405F02286
:0A48C40090DF39E023540124FF22A5
:0B48CE0090DF39E0FF747F5FF582226D
:0E48D90090DF3AE0FFC2D575F002EF30E70441
:0448E700B2D5F4044E
:0648EB008430D502F40444
:0548F10024B9F582224C
:02048B00E47318
:02062300C21BF8
:0548F6001017028015FF
:0A48FB0090DE0CE0FF78D4F2201BE1
:0A4905000AD21B90DE0CE0FF78D50B
:01490F00F2B5
:0C49100012388D400790F92BE0FF700971
:09491C00AEFF5306EF8EFF805E32
:0C492500BF1040301B3890DE0CE0FF7E1D
:0C4931000078D5E2FC7D00EFC39CFFEE97
:0B493D009DFEEF30E60543FF108007F1
:07494800AFFF5307EF8FFFE3
:0C494F0090DE0CE0FF78D4D3E29FF4FF70
:08495B00249F5024C21B8020A0
:0549630043FF10801B62
:0E4968001245ACAD83AEF0FFED035401FC60D0
:064976000543FF1080075D
:07497C00AFFF5307EF8FFFAF
:014983002211
:06498400C075858175126B
:05498A001FE1D07522C1
:0C498F00AD82AE83AFF078E3E4F208F2F2
:0C499B0008F278E6EDF208EEF208EFF208
:0749A70078D679E9E2F390F4
:0549AE004984024AA348
:0649B300C075858175E569
:0749B9007524FB78E9F27898
:0A49C000E3E4F208F208F2E57524C2
:0C49CA00FBF879E6E6F30809E6F30809BB
:0949D600E6F3904984124AA3D0D3
:0249DF0075223F
:0C49E10078D9E2C0E008E2C0E008E2C0C3
:0A49ED00E07400C0E0744AC0E078F6
:0949F700D7E2C0E008E2C0E022B2
:0C4A000015811581158178E1E22401F296
:064A0C0008E23400F22272
:0E4A1200AF8274302FFF24C6500A74072FFFA6
:064A2000301C03430720D7
:054A26008F820249E14E
:0E4A2B00E582FFC4540FF582C007124A12D074
